:40000000021165008F828E83E0540100000070F82278FFE4F6D8FD0211C3C0E0C0F0C083C082C085C084C086758600C093759300C0D075D000C000C001C002C003C004C012
:4000400005C006C007906464E0FF9000CCEFF0900135E0FFEF5440FF7E00EF4E700302036D9000CCE0FFEF20E00302032D900135E0FFEF12058500864501C546008649027E
:40008000A94A000003289000CCE0FFEF54DFFF9000CCEFF09000CCE0FFEF540AFF7E00EF64084E600302013F900135E0FFEF64457079900122E0FFEFD39400402990012709
:4000C0001205671203A5FF906400EFF090647B7406F0906450E4F090011F7401F09001357446F002032D900120E0FFEF5402FF7E00EF4E601D900123E0FFEF440AFF9001E2
:4001000023EFF09001357460F09044C87401F002032D906484E0FFEF4420FFEFF090647B7452F0906450E4F002032D90647B7402F0906450E4F0900135744AF002032D90E6
:4001400000CCE0FFEF540AFF7E00EF640A4E706D900123E0FFEF44A0FF900123EFF0900120E0FFEF5402FF7E00EF4E6037900123E0FF900135E0FEEE5408FEEEFD7C00ED91
:400180004C60047E0180027E02EE4408FEEF4EFF900123EFF09001357460F09044C87401F002032D906484E0FFEF4420FFEFF090647B7452F0906450E4F002032D7F0012C2
:4001C0001C9902032D9000CCE0FFEF30E103020256900122E0FF90011FE0FEEEC39F502E90012712056790011FE0FFE92FF9E43AFA1203A5FF906400EFF090647B7406F03F
:40020000906450E4F090011FE004F002032D900120E0FFEF5402FF7E00EF4E601D900123E0FFEF440AFF900123EFF09001357460F09044C87401F002032D1219FB90648427
:40024000E0FFEF4420FFEFF090647B7452F0906450E4F002032D900120E0FFEF5402FF7E00EF4E601D900123E0FFEF449AFF900123EFF09001357460F09044C87401F00274
:40028000032D906484E0FFEF4420FFEFF090647B7452F0906450E4F0900123E0FFEF4490FF900123EFF002032D906400E0FF90012412056790011EE0FEE92EF9E43AFAEF85
:4002C0001203BE90011EE004F0900121E0FF90011EE0FEEEC39F500D90647B7402F0906450E4F08048900120E0FFEF5402FF7E00EF4E601C900123E0FFEF4409FF9001239B
:40030000EFF09001357460F09044C87401F0801D906484E0FFEF4420FFEFF090647B7412F0906450E4F080057F00121C999000CCE0FFEF30E54C900123E0FF900135E0FEA4
:40034000EE5408FEEEFD7C00ED4C60047E0180027E02EF4EFF900123EFF0906484E0FFEF54DFFFEFF09001357410F08015900135E0FFEF5410FF7E00EF4E70069001357459
:4003800010F0D007D006D005D004D003D002D001D000D0D0D093D086D084D085D082D083D0F0D0E032BB010689828A83E0225002E722BBFE02E32289828A83E49322BB01F4
:4003C0000689828A83F0225002F722BBFE01F322C5F0F8A3E028F0C5F0F8E582158270021583E038F022EF2BFFEE3AFEED39FDEC38FC22E88FF0A4CC8BF0A42CFCE98EF043
:40040000A42CFC8AF0EDA42CFCEA8EF0A4CDA8F08BF0A42DCC3825F0FDE98FF0A42CCD35F0FCEB8EF0A4FEA9F0EB8FF0A4CFC5F02ECD39FEE43CFCEAA42DCE35F0FDE43C75
:40044000FC2275F008758200EF2FFFEE33FECD33CDCC33CCC58233C5829BED9AEC99E58298400CF582EE9BFEED9AFDEC99FC0FD5F0D6E4CEFBE4CDFAE4CCF9A88222B800C1
:40048000C1B90059BA002DEC8BF084CFCECDFCE5F0CBF97818EF2FFFEE33FEED33FDEC33FCEB33FB10D703994004EB99FB0FD8E5E4F9FA227818EF2FFFEE33FEED33FDEC9B
:4004C00033FCC933C910D7059BE99A4007EC9BFCE99AF90FD8E0E4C9FAE4CCFB2275F010EF2FFFEE33FEED33FDCC33CCC833C810D7079BEC9AE899400AED9BFDEC9AFCE858
:4005000099F80FD5F0DAE4CDFBE4CCFAE4C8F922EF4BFFEE4AFEED49FDEC48FC22E8600FECC313FCED13FDEE13FEEF13FFD8F122E8600FEFC333FFEE33FEED33FDEC33FCDC
:40054000D8F122E0FCA3E0FDA3E0FEA3E0FF22E0F8A3E0F9A3E0FAA3E0FB22ECF0A3EDF0A3EEF0A3EFF022E0FBA3E0FAA3E0F922EBF0A3EAF0A3E9F022E493FB740193FABD
:40058000740293F922D083D082F8E4937012740193700DA3A393F8740193F5828883E4737402936860EFA3A3A380DFE5162582F582E5153583F583B515048582162210AF33
:4005C00006858216F51522858216F515D2AF22EC8EF0A4CCC5F0CCCDF8EFA4CEC5F02DFDE43CFCE8A42EC8C5F03DFDE43CFCEFA4FFE5F028FEE43DFDE43CFC22E709F60802
:40060000DFFA8046E709F208DFFA803E88828C83E709F0A3DFFA8032E309F608DFFA806EE309F208DFFA806688828C83E309F0A3DFFA805A89828A83E0A3F608DFFA804E92
:4006400089828A83E0A3F208DFFA804280D280FA80C680D4805580F28029801080A680EA809A80A880DA80E280CA802988848C8589828A83E493A30586F0A30586DFF5DE39
:40068000F3800B89828A83E493A3F608DFF9ECFAA9F0EDFB2288848C8589828A83E0A30586F0A30586DFF6DEF480E389828A83E493A3F208DFF980D688F0EF60010E4E60E2
:4006C000CD88F0ED2402B4040050C3F582EB2402B4040050B9232345822390064C73BB010CE58229F582E5833AF583E0225006E92582F8E622BBFE06E92582F8E222E58286
:4007000029F582E5833AF583E49322F8E0FBA3A3E0F925F0F0E582158270021583E0FA38F022E50824A7F582E43400F583E00508229000A43007039000A7E475F00112076D
:400740000B0203A52000E97F2ED2008018EF540F2490D43440D4FF30040BEF24BFB41A0050032461FFE50960021509050CE50C7002050B30070E9000A4E475F00112070BF4
:40078000EF0203BE021B377403D2078003E4C207F5089000A4120570E4F509F50BF50CE50960077F2012076580F5750AFFC201C200C202C203C205C206C208120731FF7093
:4007C0000D3007057F00120776AF0CAE0B22B4255FC2D5C204120731FF24D0B40A00501A75F00A780930D50508B6FF0106C6A426F620D5047002D20380D924CFB41A00EF85
:400800005004C2E5D204020977D20180C6D20080C0D20280BCD2D580BAD20580B47F201207652002077401B5090040F1120722FF12076502079FD208D2068095120722FB37
:40084000120722FA120722F94A4B700679487A0A7BFF20022EE509602A7E008E827583001206DE60060EEE650A70F0C2D5EBC0E0EAC0E0E9C0E0EE1209BED0E0F9D0E0FA81
:40088000D0E0FB1203A5FF60AAEBC0E0EAC0E0E9C0E0120765D0E02401F9D0E03400FAD0E0FBE50A0460DCD50AD980877BFF7A0979BAD202809C791080027908C206C2082B
:4008C0008008D2D5790A8004790AC2D5E50A047002F50AE4FAFDFEFF120722FC7B08200113120722FD7B1030000A120722FE120722FF7B20EC3382D592D55013C3E430005C
:40090000069FFFE49EFEE42001039DFDE49CFCE4CBF8C201EC700CCFCECDCCE824F8F870F38017C3EF33FFEE33FEED33FDEC33FCEB33FB994002FB0FD8E9EB300105F8D094
:40094000E0C448B201C0E00AEC4D4E4F78207B0070C2EAB50A0040BCC0E01209C0D0F0D0E0200104C4C0E0C4B201C0F012074ED0F0D5F0EB02079F120585083C5308B6580B
:40098000080D4C08094208BA4F08C24408C24908224308C85508AC4608AC4508AC470A685008112D08152E08382B0819230836200A512A07D148000008303F3F3F00790A54
:4009C000A2D5200314300509B910020404B9080104A2D52006025001042002689202B509005034C0E07F203003197F30A20272067205500F120A17C202C206C205C2087F23
:400A000030800F300503E9C0E0120765300503D0E0F9D0E0B509CC3005177F30B9100C1207657F583004077F788003B908031207653002057F2D0207657F202008F87F2BC7
:400A40002006F322920280CF286E756C6C2900D2011207223001F8C201780930D50108F60207D12D504349581207222403B405004001E4900A6393120756743A120756D264
:400A8000037509040208B67B007A4679E8121D9BEF4405FD7B007A4679E8121DA7751400E514C3940A503AAF14EF75F005A424B3F582E4341DF583AF82AE838E088F09AE7E
:400AC00008AF098F828E83120579AE08AF098F828E83740393FC740493FD121C23051480BF751400E514C394035078AF14EF75F008A424E5F582E4341DF583AF82AE838EB9
:400B00000A8F0BAE0AAF0B8F828E831205798B0C8A0D890EAE0AAF0B8F828E83A3A3A31205798B0F8A108911AE0AAF0B8F828E83740693F512740793F513AB0FAA10A91161
:400B4000C003C002C001AB0CAA0DA90E900005120570D001D002D003AF13AE12121AD9051480817B087A0079001219CE7B017A507903121D9BEF4402FD7B017A50790312D6
:400B80001DA77B017A507913121D9BEF4402FD7B017A507913121DA79043A0E0FFEF4440FF9043A0EFF09043C2E0FFEF4410FF9043C2EFF07B087A0D791CC003C002C001D6
:400BC0007B007A517900900005120570D001D002D0037F0A7E00121AD97B087A0D7928C003C002C0017B007A5179C0900005120570D001D002D0037F0A7E00121AD97B0807
:400C00007A0D7934C003C002C0017B007A517922900005120570D001D002D0037F087E00121AD99044F47401F0904322E0FFEF4408FF904322EFF09046ECE0FFEFC39405C2
:400C40005006904689743AF090480074F1F0120F2190480074B1F01219637B007A4379A0C003C002C0017B007A4379B0900005120570D001D002D0037F0E7E00121AD9900D
:400C800043B0E0FFEF54FDFFEFF022900092EFF0900093120570121CAE7BFF7A11794E1217B77D007F0E121302900097EFF0900097E0FFEF604C7B017A00799AC003C00289
:400CC000C0017BFF7A11795F9000A7120570900097E0FF9000AAEFF0D001D002D003120787900098EEF0A3EFF07B017A00799A900098E0FEA3E0FFAD07121868900097E0FD
:400D0000FF227BFF7A11794E1217B77F00121614900093120567EF1203BE900092E0FF121689900097EFF0900097E0FFEF6006900097E0FF227D017F0E121459900097EFED
:400D4000F0900097E0FFEF6006900097E0FF22900098E4F0A3E4F0900096E0FF7E00900098E0FCA3E0FDC3ED9FEE6480F8EC648098504C900096E0FFEF14FF7E00900098BC
:400D8000E0FCA3E0FDC3ED9FEE6480F8EC64809850047F0180027F00121614900093120567900098E0FCA3E0FDE92DF9EA3CFAEF1203BE900098E475F0011203D0809812AE
:400DC00018AE900097EFF0900097E0FFEF6006900097E0FF227F002290008CEFF090008D120570121CAE7D007F0E121302900093EFF0900093E0FFEF604C7B017A007994B5
:400E0000C003C002C0017BFF7A1179369000A7120570900093E0FF9000AAEFF0D001D002D003120787900091EEF0A3EFF07B017A007994900091E0FEA3E0FFAD071218687E
:400E4000900093E0FF2290008CE0FF121689900093EFF0900093E0FFEF604C7B017A007994C003C002C0017BFF7A11793C9000A7120570900093E0FF9000AAEFF0D001D086
:400E800002D003120787900091EEF0A3EFF07B017A007994900091E0FEA3E0FFAD07121868900093E0FF22900091E4F0A3E4F0900090E0FF7E00900091E0FCA3E0FDC3ED38
:400EC0009FEE6480F8EC648098503A90008D120567900091E0FEA3E0FFE92FF9EA3EFA1203A5FF121689900093EFF0900093E0FFEF6006900093E0FF22900091E475F001F6
:400F00001203D080AA1218AE900093EFF0900093E0FFEF6006900093E0FF22900093E0FF227B007A4079807D037C00121D809040827418F07B007A4079847D057C00121D23
:400F4000809040867419F07B007A4079887D337C00121D8090408A7418F07B007A40798C7D337C00121D8090408E7418F09043007402F09040007408F09042007403F07B1F
:400F80000C7A017908121D9B9046A1EFF07B007A4279227D087C00121D807B007A4279207D517C12121D80900004E4F07F197E007D007C0090000012055B90000012054349
:400FC000D3EF9400EE9400404E900004E0FFEF64036044904225E0FFEF5401FF7E00900004E0FEEE25E0FEEE4FFFEF5403FF900004EFF07FE07E017D007C00121A0090009D
:40100000001205437BFF7AFF79FF78FF1203E690000012055B80A3900000120543EF4E70057F03121D3F7B007A4079047D007C01121D809040047407F0904006E4F09040B4
:40104000087448F0904004E4F09040017402F09043A2E0FFEF440FFF9043A2EFF022204D61696E200A00583A202564200A593A202564200A5A3A202564200A00496E69743D
:4010800069616C200A0057656C636F6D6520746F20746865204465736B746F702054657374657220436F6E66696775726174696F6E202620546573746572696E6720546F99
:4010C0006F6C200A004D656E753A0A00313A2054657374204163636C65726D65746572200A00323A2054657374204D61676E65746D65746572200A00333A2052656164201E
:401100004163636C65726D65746572200A00343A2052656164204D61676E65746D657265200A00353A20436F6E66696775726174696F6E200A00313A20256400323A2025EF
:401140006400333A20256400343A202564006D616B6520697420686572653F20200A00583A2025640075930078007583467582E8E04401F0009046ECE0F99046FAE0FAB90B
:4011800003225420B40012B8001AEA901FFFF07401901FFEF09046F6F0901FFEE06005901FFFE0FA90480074C0F075812190000078007920E4F0A3D8FCD9FAEA900119F0D8
:4011C00002001175151F7516FD120A8702120A02124FE493A3F8E493A34003F68001F208DFF48029E493A3F85407240CC8C333C4540F4420C8834004F456800146F6DFE4EC
:40120000800B0102040810204080901AA5E47E019360BCA3FF543F30E509541FFEE493A360010ECF54C025E060A840B8E493A3FAE493A3F8E493A3C8C582C8CAC583CAF0AB
:40124000A3C8C582C8CAC583CADFE9DEE780BE121B5ED2AF9044F474FDF090007DE4F0A3740AF090007FE4F0A3740BF0900081E4F0A3740CF07BFF7A10795E1217B77F0AF5
:401280007E007D007C001216F27B017A00797D1214F87B017A007902C003C002C0017BFF7A1079669000A712057090007DE0FEA3E0FF9000AAEEF0A3EFF090007FE0FEA3A4
:4012C000E0FF9000ACEEF0A3EFF0900081E0FEA3E0FF9000AEEEF0A3EFF0D001D002D003120787900000EEF0A3EFF07B017A007902900000E0FEA3E0FFAD071218680212A3
:401300007E229000A4EFF09000A5EDF09000A67402F0900135E0FFEF641060030213AA906464E0FFEF20E47C9044C87401F09000A4E0FFEF25E0FF9000A4EFF09000A5E04D
:40134000FFEF60169000A4E0FFEF4401FF9000A4EFF09001357449F080069001357445F09000A4E0FF906400EFF090647B7482F0906450E4F0906464E0FFEF30E0F79064D4
:4013800064E0FFEF540AFF7E00EF640A4E700E9001357410F09000A67403F0800D9000A6E4F080069000A67401F09000A6E0FF227F00121B0D7F017E007D007C001216F267
:4013C0007F20121BF17F37121BF17F01121B0D7F647E007D007C001216F27F00121B0D7F017E007D007C001216F27F21121BF17F00121BF17F01121B0D7F647E007D007CF5
:40140000001216F27F00121B0D7F017E007D007C001216F27F22121BF17F00121BF17F01121B0D7F647E007D007C001216F27F00121B0D7F017E007D007C001216F27F23D2
:40144000121BF17F30121BF17F01121B0D7F647E007D007C001216F2229000A4EFF09000A5EDF09000A67402F0906464E0FFEF20E2030214F29000A4E0FFEF25E0FF9000A7
:40148000A4EFF09000A5E0FFEF60169000A4E0FFEF4401FF9000A4EFF09001357449F080069001357445F09000A4E0FF906400EFF090647B7432F0906450E4F0906464E034
:4014C000FFEF20E0F7906464E0FFEF30E0F7906464E0FFEF540AFF7E00EF640A4E700E9001357410F09000A67403F080059000A6E4F09000A6E0FF229000891205707B01F7
:401500007A00798C9000967406F07F03120C8B90008CE0FF900089120567EF1203BE90008DE0FF900089120567E92401F9EA3400FAEF1203BE90008EE0FF90008912056715
:40154000E92402F9EA3400FAEF1203BE90008FE0FF900089120567E92403F9EA3400FAEF1203BE900090E0FF900089120567E92404F9EA3400FAEF1203BE900091E0FF9007
:401580000089120567E92405F9EA3400FAEF1203BE2290008AEFF090008BECF0A3EDF090008AE0FFEFD3941F5003D38001C340057F00121C9990008AE0FFEF541FFF7E0072
:4015C000EF25E0FFEE33FEEF2400FFEE3444FEAA06A9077B01121D7390008DEEF0A3EFF090008AE0FF7E02EF8EF0A4FFAEF0EF2400FFEE3444FEAA06A9077B0190008BE0F4
:40160000FEA3E0FFAD07AC06121D8290008DE0FEA3E0FF229000A4EFF09000A5E4F0906464E0FFEF30E25C900135E0FFEFB4491A900135744AF090647B7402F0906450E4A8
:40164000F0906464E0FFEF20E0F7906464E0FFEF30E0F7906400E0FF9000A5EFF09000A4E0FFEF601890647B7402F0906450E4F0906464E0FFEF30E00A80F58006900135E1
:401680007460F09000A5E0FF229000A4EFF09000A57402F0906464E0FFEF30E24F9000A4E0FF906400EFF090647B7406F0906450E4F0906464E0FFEF20E0F7900135744687
:4016C000F0906464E0FFEF30E0F7906464E0FFEF20E10D9001357460F09000A5E4F0800C9001357460F09000A57403F09000A5E0FF2290FFFC1205AB12055B8515838516A7
:4017000082120543D3EF9400EE9480402F90011A120543121A00851583851682C083C082120543EF2400FFEE3480FEED34FFFDEC34FFFCD082D08312055B80BF90011012C9
:40174000054385158385168212054F1203F3121A009000041205AB2290008AEFF090008BEDF090008BE0FFEFD394075003D38001C340057F00121C9990008AE0FFEFD39449
:401780001F5003D38001C340057F00121C9990008BE0FFEF5407FF7E00EF75F020A4FFAEF090008AE0FEEE541FFE74802EF582E43444F583EFF0229000A41205709000A7E8
:4017C000E4F0A3E4F090013AE0FFEF60429000A41205679000A7E0FEA3E0FFE92FF9EA3EFA1203A5FFEF60279000A41205679000A7E0FEA3E0FFE92FF9EA3EFA1203A5FF83
:40180000121C0A9000A7E475F0011203D080BE2290647BE4F09064847401F0121D02900089EFF0906494E0FFEF4410FFEFF0900089E0FF121C3C906421740FF09064317456
:4018400008F09044C87401F07D077F001217587C007D1A7F001215929001357410F0121D17121D2B121CAE229000A41205709000A7EDF09000A8E4F090013AE0FFEF602DC7
:401880009000A41205679000A8E0FFE92FF9E43AFA1203A5FF121C0A9000A8E004F09000A7E0FF9000A8E0FEEEC39F40D3229000A47402F0906464E0FFEF30E22E90647B19
:4018C0007452F0906450E4F0906464E0FFEF20E0F79001357410F0906464E0FFEF5421FF7E00EF4E60F19000A4E4F09000A4E0FF22121D02900089EFF0906495E0FFEF441C
:4019000020FFEFF0906496E0FFEF4410FFEFF0906597E0FFEF4410FFEFF0900089E0FF121C3C121C541219FC1219FD22906567E0FFEF30E507906456E0FF80F0121D02909E
:401940000089EFF0906496E0FFEF4401FFEFF0906496E0FFEF54FEFFEFF0900089E0FF121C3C227B0C7A0179CF121D9B900000EFF0900000E0FFEF5407FF90586EEFF09078
:401980000000E0FFEFC4540FFFEF540FFF90586FEFF09058767444F022900089741EF090008A7480F07B017A00798A9000907401F07F11120DD890008A7401F07B017A0071
:4019C000798A9000907401F07F10120DD822ACEAADA08B938A838982E0F96017A3E0F5EAA3E0F5A0A3E060F4FAA3E0F8A3E0F2DAF8D9E98DA08CEAE4F593222222220000E8
:401A0000EC4D4E700D78FCEF24E950032840FD2200007BF178DA0000EF28FF78FFEE38FEED38FDEC38FC50E7EF2BFFEE38FEED38FDEC38FC40F22205020304121D029000CE
:401A400089EFF090649DE0FFEF4420FFEFF090649CE0FFEF4410FFEFF0906598E0FFEF4410FFEFF0121C6B900089E0FF121C3C22121D02900089EFF0906599E0FFEF44203A
:401A8000FFEFF0906498E0FFEF4410FFEFF0906596E0FFEF4410FFEFF0121C82900089E0FF121C3C22440115016E360044011000005DC04101141844011A2EE0000041016F
:401AC0003600410134004101380041013A0043012A00000041013B0000758600EF4E6027EF60010E759300900005E0F595A3E0F585A3E0F5848B938A838982E0A30586F008
:401B0000A31586DFF6DEF4E4F593F59522900089EFF0905100E0FFEF54FEFF90008AEFF0900089E0FFEF5401FF90008AE0FEEF4EFF905100EFF022EFB40A07740D121B42C2
:401B4000740A309811A899B8130CC2983098FDA899C298B811F63099FDC299F599227F01121B0D121CC3121BBC121CD8121CED7BFF7A10797C1217B71219991213B02290D3
:401B800065897472F09064887420F09064257407F09064357448F09065867402F02290648D7472F090648C7420F090642B7407F090643B7448F0906588E4F022900136E02B
:401BC000FFEF70091218109001367401F0121D8F9044C07401F022906485740FF012192C121D51121D61906486E4F0906587E4F022900089EFF0906466E0FFEF30E2F79073
:401C00000089E0FF906446EFF0229000A9EFF0906566E0FFEF20E2F79000A9E0FF906546EFF022EC4D6011ED60010C8B938A838982E4F0A3DDFCDCFA75930022EF54016045
:401C400004D2AF8002C2AFEF5402FF9044F4E054FD4FF0229043A2E0FFEF4402FFEFF09043B2E0FFEF4402FFEFF0229043A2E0FFEF4404FFEFF09043B2E0FFEF4404FFEF5C
:401C8000F0229043A2E0FFEF4408FFEFF09043B2E0FFEF4408FFEFF02290FFFF1205ABEFF09046EA7401F09000011205AB22900123E0FF9000A4EFF0900123E4F09000A4DB
:401CC000E0FF22900134E0FFEF7009121BD79001347401F01218F122900138E0FFEF7009121B9E9001387401F0121A3B2290013AE0FFEF7009121B7F90013A7401F0121AC0
:401D000070229044F4E0F84402F0E85402FF10AF012274014FFF2290011EE4F0900123E0FFEF54FEFF900123EFF02290011FE4F0900123E0FFEF54FDFF900123EFF0229091
:401D40000005EFF0900005E0FF900005EFF080FE22906466E0FF900089EFF0900089E0FF22906567E0FF900089EFF0900089E0FF228B938A838982E0FFA3E0FE759300229F
:401D80008B938A838982EDF0A3ECF07593002290647BE0FFEF4402FFEFF0228B938A838982E0759300FF228B938A838982EDF075930022005110001000513000400051F0F5
:401DC000001001000006000106800400010B00050001140008000140000A00014C0002000150000020005260080C140006010600080C1C0080010A80080C9C0080000000B6
:401E000000000000000000000000000000000000000000000000000000000000000000000000000000000000000000000000000000000000000000000000000000000000A2
:401E40000000000000000000000000000000000000000000000000000000000000000000000000000000000000000000000000000000000000000000000000000000000062
:401E80000000000000000000000000000000000000000000000000000000000000000000000000000000000000000000000000000000000000000000000000000000000022
:401EC00000000000000000000000000000000000000000000000000000000000000000000000000000000000000000000000000000000000000000000000000000000000E2
:0200000480007A
:4000000025005204004401C404C014200064072004210F3108850F88388C388D72006503860F880F8972010071005D012A02A203540401054607A90A080B010C0D12FF1455
:4000400040150E161D173018E219331B0C1E02200121802356249225FF2660283D29402AC22B132C042EE035FF36FF3E4040354404450B46D0480949FF4A7F4BFF4C424DB4
:40008000A04E70500C580459045A045F016109624063096430650981FF82018603872088108A218B948D0F930895C0984899909B029E049F40A010A221A798A848A990ABC7
:4000C00001AC40AD04AE02AF08B040B1C0B207B408B638B73FB8A2B980BA08BE50C023C502C605C805C9FFCAFFCBFFCC42CDA0CE70D008D110D804D904DA04DF01E148E24D
:4001000040E348E480E548E680E74801013E0004018202080535082009480A400E010F081008110412431304168A17101A011C221D2D1E401F08221023042741282029017F
:400140002B082C082D042E403008311035203602374438203A013B043C203E0A3F80410443064520470848214F08501057405C805D8080248112C07FC2CFC4DFCA77CCF664
:40018000CEF7D063D208E001E20401025802130710091E0C010D1E0E041120135E14121601170818011A061B041C011E1A1F102213239E2520263327412B02301031803288
:4001C00008331E34073501362037603A203E013F04580459045F0181148301840B85818610870288018A028B108C408D158E2B900291019205930E940396109780987A9954
:40020000149A049B019C089D209E10A181A280A308A408A515A623A830A915AA03AC28AE53AF40B007B10FB380B530B6F8B740B920BA02BB02BF10D804D904DF0101034CFE
:40024000008003280602078008A40A800D400E24108812211501170419C01A801C401E241F4021402209230825102680279429242A022B022C282D012F40329933203404E9
:4002800035A436203701382039083A813C803D203E403F84410142808420860287018B048C488D048E409020926093049508988099049B419C209D209EC39F18A408A54026
:4002C000A608A702A810A980C097C2EFC43FCAEFCCFFCE7FE205E608010456014F0540070B09030A010B200D011301150319401B141D421F092190230B251F29482B022D9A
:4003000001300133E0351F374039883F4454205604580459045B045F0181628314850D880E890D8D0D910D9420954296D0970898339AC49C559D029EAA9F0DA10DA494A5EB
:4003400040A669AD11AF22B2F0B40FB570B70FB820BA08BBA0C002C601C750C824C9FFCA07CBFFCC40CD20CEF0CF05D008D602D728D804D904DA04DB04DC11DD13DF01E01E
:4003800040E1A8E240E320010552030805100E140F0217041B021D141E10218422202680270428242A802B402C202E4130013140322836803705382039023A403B243C8023
:4003C0003D1A3F0245205602578059205A025B486088618065046C406D186E016F01744076018304840186408B1090209102928293049508982C99409B409E40A208A34809
:40040000A480A620A702A820AA08AB08AD40B408B580B681C042C2E0C420CADFCCDFCEFFD020D60FD84DE001E20AE804EA0201061D803282C084048C928E04902192D294A6
:40044000FA960598079A689C96A101A492A604A804AA92AC96B01DB101B301B407B6E0BA82BF04D804D904DC31DF0101074F00010321042008080A850E221118120115027D
:400480001602180519801A841D241E221F402101220A26A0276028202BA02D802E2531013201340A37453D1A3E083F80454147244E014F045420550257655C205F45670224
:4004C0008101826183218C048D018E408F0890809110920196449A039B05A144A380A420A521A920AA40AB08AC80AE80B080B140B620C04DC2AFC497CAF1CCD0CEF0D0F01E
:40050000D210D6F0D810E401EA06EC2001086B010103080410052006AC08DC09070A020D060F011110144016101740180C19011A711B0E1D071E032103230424092560266F
:40054000F0281429602D022F05330F34E03510361F376039803A203B083F505418580459045B045C025D305F01803C810982C28332841C859F86E1899F8CE78D808E1894DC
:40058000189514972A980899029B459C10A004A604AA63ACFFB01FB180B280B318B458B507B638B760B808BA22BF40C065C104C202C401C60EC7C0C824C9FFCAFFCBFFCCA6
:4005C00062CDA0CEF0CF41D00CD804D904DA04DC23DD02DF01E640E702E910EA30EB10ED10EE10EF12010950000401820514088009280C100E020F20110812481340160822
:400600001708180419021A011B041E021F10200122162408254027102C102D012E402F143214344036053718380239943C803E143F024041432048044A0253425F02670626
:4006400082208F42904291959250930495029628978098409F10A044A280A331A540A622A746AB10AE10B010B608B702C06DC2E7C46FCAF0CCF6CEFFD00DD20CD680D83014
:40068000E010E440E810EE80010A1C030104E70618089C0A620CFF101C12E118041E042010240828182B012EA33038321F34983501364038803A0A3B023F10580459045CAD
:4006C000225F01010B4F00480308042005200620074108200A820C100D100E500F0210A81202148015011609178819041A811B281C202040230424842B042C102D012E5006
:400700003520378A39023E243F424440454047024E8057106E046F04763077498110860487088B40902291B4925294C496A9978098A09A019D049E289F05A0ECA301A510F2
:40074000A622A762A810AB08AF01B005B304B650C0F7C2FBC4FFCAF4CCF0CEF1D010E020EC40EE10010C490001064008180A060B030C010D020E1E10221218141C162218A2
:40078000321A081B031C3F1F01202A2210240628042C22301F3103326038025418580459045B045C105D205F0181418310850C86048A018DEF8E04920293C39401958299D8
:4007C000C39D2F9E029FC0A108A52CA7C3A904ADE3AF0CB001B110B320B402B50FB604B7C0B802BB20BE50BF04D602D711D804D904DB04DC20DD20DF01010D3C032604840D
:400800000501060808040A010B800D100E500F0214821604170819601B011D011E102008220123252780280129142A023256340236203781384A3D203F805B205F016560F0
:40084000699470AC71107202810183808701884089108C808E01900298209A049E20B421C0F7C2FDC4F0CA0FCC3FCE3BD684D830E010E460010F01822401150C85809D803E
:40088000A802A901AB80AC98B080B310B404E008EA0EEE030116560001043806040D030F14131E144015091606171019131B0C1C181E222012211322202304242828202AD8
:4008C000182E203110323E330F340136403B083E503F014026410445E046BC480E49FF4AFF4BFF4EF04F44500C5401580459045A045B045C335D335F0166C06A406B0284A8
:400900000F8630881089018C058D018E409030920F9301940A980F9C3FA030A101A420A501A83CAA03AE0FAF01B040B203B301B43CBA20BF04D440D804D904DB04DC03DDA6
:4009400010DF0101174D00240180050608A809010C400E20101A1101150216121710180419011B081E281F8021082460271028022A092C402F40310235043602371038809F
:4009800039103F80444047104D024E085480561057405C405D025E085F106108630A80088101841085018C209080911293809420980299049A0BA102A20AA305A708AA8042
:4009C000AB41AE20AF40C037C2AFC4FFCA8BCCE1CE1CD0A0D220D6F0D80EE004E208E60601186301040433064C08890A301301148018031A141D022301243326C42AFE30CD
:400A0000103102320F330234E0350437013A283E013F514065410345EC470B481349FF4AFF4BFF4EF04F44500C5401580459045A045B045C225D225F0166C06A406B028093
:400A400001840185E789E78C018D018F0E99449B319C019D80AD22AF51B107B380B401B560B718BA80BE10BF40C056C103C204C401C5C0C7E0C822C9FFCAFFCBFFCC62CDCE
:400A8000A0CEF0CF41D00CD602D711D804D904DA04DB04DC33DD33DF01E640E702E910EA30EB10ED10EE10EF1201195600040182021003400408051408200A020B040F24B7
:400AC0001410171019201A021D141E441F04204122182402260627182A402E01325035013680384239143B023D0140014309441049814A084C044D014E024F04510156083D
:400B000059205A015B015C205D015E405F0869146A80712872207302810482108480862087028C409004920195029604974A981099029C809D949E48A280A310A52CA60C82
:400B4000A804C06DC261C460CA88CC9CCE8ED04BD23CD6F4E240EC01011B0986409E40AA08AB40AD20AE11AF48B580EC400140023010CC10014111072008800F0150045FCF
:400B800080620265018101838086029C10C020C2C0D420D620D8C0E2E001420794089B209C10A880AB01E880EC800143049408AC10B320EE400144021280C4080145040CFB
:400BC00002B680C204EA02014602B002EE01014802A804EE8001490912407F0186409302AB01C410DE20E010EE20014C029B40AB40014D0377409B40DE04015008000F0876
:400C0000010A0B0C0D0E07100E1A0A1C0C015101000300002220000011000000000A00100084000038800504006000000004008016560809000000003801030000842F00AE
:400C4000000700380084000002040000007F0B8030080702200288000000105443052000010ECBDF3DFFFFFF2200F008040000000900000004040404131100010000C000DB
:400C800040011011C0010011400140010000000000000000000000000000000000FF0100000102000201000000030400A53A4A041A016000CC031300FFC000074D08920733
:400CC00004100007A90554780022B5050080FF00007F0000000200000000041001000000001050000AFF07FF4020F0050800F60000000000040404040002000140A8402051
:400D000000000000000000000000000000000000000000000000000000000000C100020DCD00CC000000000022001122220022000000000020000000000000000000000091
:400D40000000000000000000000000000000000000000000000000000000000000000000000000000000000000000000000000000000000000000000000000000000000073
:400D80000000000000000000000000000000000000000000000000000000000000000000000000000000000000000000000000000000000000000000000000000000000033
:400DC00000000000000000000000000000000000000000000000000000000000000000000000000000000000000000000000000000000000000000000000000000000000F3
:400E000000000000000000000000000000000000000000000000000000000000000000000000000000000000000000000000000000000000000000000000000000000000B2
:0200000490006A
:0400000000004005B7
:0200000490105A
:04000000BC90ACAF55
:0200000490303A
:020000002029B5
:0200000490501A
:0C00000000011E02806903011E14A09282
:0200000490402A
:4000000000000000000000000000000000000000000000000000000000000000000000000000000000000000000000000000000000000000000000000000000000000000C0
:00000001FF
