:10000000021004008F828E83E0540100000070F81B
:100010002278FFE4F6D8FD021062C0E0C0F0C08391
:10002000C082C085C084C086758600C09375930069
:10003000C0D075D000C000C001C002C003C004C061
:1000400005C006C007906464E0FF9000CCEFF0901C
:100050000135E0FFEF5440FF7E00EF4E70030203D6
:100060006D9000CCE0FFEF20E00302032D900135FE
:10007000E0FFEF12058500864501C546008649026E
:10008000A94A000003289000CCE0FFEF54DFFF9066
:1000900000CCEFF09000CCE0FFEF540AFF7E00EFC1
:1000A00064084E600302013F900135E0FFEF6445B4
:1000B0007079900122E0FFEFD3940040299001274E
:1000C0001205671203A5FF906400EFF090647B7443
:1000D00006F0906450E4F090011F7401F090013537
:1000E0007446F002032D900120E0FFEF5402FF7EE2
:1000F00000EF4E601D900123E0FFEF440AFF9001E6
:1001000023EFF09001357460F09044C87401F00260
:10011000032D906484E0FFEF4420FFEFF090647BB8
:100120007452F0906450E4F002032D90647B7402EA
:10013000F0906450E4F0900135744AF002032D9081
:1001400000CCE0FFEF540AFF7E00EF640A4E706DB2
:10015000900123E0FFEF44A0FF900123EFF0900116
:1001600020E0FFEF5402FF7E00EF4E603790012346
:10017000E0FF900135E0FEEE5408FEEEFD7C00ED60
:100180004C60047E0180027E02EE4408FEEF4EFFCA
:10019000900123EFF09001357460F09044C8740131
:1001A000F002032D906484E0FFEF4420FFEFF09015
:1001B000647B7452F0906450E4F002032D7F0012CF
:1001C0001BCA02032D9000CCE0FFEF30E1030202D6
:1001D00056900122E0FF90011FE0FEEEC39F502EDB
:1001E00090012712056790011FE0FFE92FF9E43A1B
:1001F000FA1203A5FF906400EFF090647B7406F0A0
:10020000906450E4F090011FE004F002032D90018F
:1002100020E0FFEF5402FF7E00EF4E601D900123AF
:10022000E0FFEF440AFF900123EFF0900135746086
:10023000F09044C87401F002032D121CE490648411
:10024000E0FFEF4420FFEFF090647B7452F0906485
:1002500050E4F002032D900120E0FFEF5402FF7EF6
:1002600000EF4E601D900123E0FFEF449AFF9001E4
:1002700023EFF09001357460F09044C87401F002EF
:10028000032D906484E0FFEF4420FFEFF090647B47
:100290007452F0906450E4F0900123E0FFEF44903A
:1002A000FF900123EFF002032D906400E0FF900126
:1002B0002412056790011EE0FEE92EF9E43AFAEFF8
:1002C0001203BE90011EE004F0900121E0FF9001B6
:1002D0001EE0FEEEC39F500D90647B7402F09064AC
:1002E00050E4F08048900120E0FFEF5402FF7E00D0
:1002F000EF4E601C900123E0FFEF4409FF900123C3
:10030000EFF09001357460F09044C87401F0801DE6
:10031000906484E0FFEF4420FFEFF090647B741260
:10032000F0906450E4F080057F00121BCA9000CC6E
:10033000E0FFEF30E54C900123E0FF900135E0FE57
:10034000EE5408FEEEFD7C00ED4C60047E01800260
:100350007E02EF4EFF900123EFF0906484E0FFEF08
:1003600054DFFFEFF09001357410F08015900135E7
:10037000E0FFEF5410FF7E00EF4E700690013574E1
:1003800010F0D007D006D005D004D003D002D001A1
:10039000D000D0D0D093D086D084D085D082D083E6
:1003A000D0F0D0E032BB010689828A83E02250027D
:1003B000E722BBFE02E32289828A83E49322BB0107
:1003C0000689828A83F0225002F722BBFE01F322C3
:1003D000C5F0F8A3E028F0C5F0F8E58215827002B8
:1003E0001583E038F022EF2BFFEE3AFEED39FDECFD
:1003F00038FC22E88FF0A4CC8BF0A42CFCE98EF022
:10040000A42CFC8AF0EDA42CFCEA8EF0A4CDA8F07C
:100410008BF0A42DCC3825F0FDE98FF0A42CCD3540
:10042000F0FCEB8EF0A4FEA9F0EB8FF0A4CFC5F0AA
:100430002ECD39FEE43CFCEAA42DCE35F0FDE43CA3
:10044000FC2275F008758200EF2FFFEE33FECD33EE
:10045000CDCC33CCC58233C5829BED9AEC99E58235
:1004600098400CF582EE9BFEED9AFDEC99FC0FD5C1
:10047000F0D6E4CEFBE4CDFAE4CCF9A88222B800B1
:10048000C1B90059BA002DEC8BF084CFCECDFCE57C
:10049000F0CBF97818EF2FFFEE33FEED33FDEC33A0
:1004A000FCEB33FB10D703994004EB99FB0FD8E525
:1004B000E4F9FA227818EF2FFFEE33FEED33FDEC6E
:1004C00033FCC933C910D7059BE99A4007EC9BFC64
:1004D000E99AF90FD8E0E4C9FAE4CCFB2275F010F0
:1004E000EF2FFFEE33FEED33FDCC33CCC833C81015
:1004F000D7079BEC9AE899400AED9BFDEC9AFCE843
:1005000099F80FD5F0DAE4CDFBE4CCFAE4C8F9228F
:10051000EF4BFFEE4AFEED49FDEC48FC22E8600F90
:10052000ECC313FCED13FDEE13FEEF13FFD8F12225
:10053000E8600FEFC333FFEE33FEED33FDEC33FC29
:10054000D8F122E0FCA3E0FDA3E0FEA3E0FF22E05F
:10055000F8A3E0F9A3E0FAA3E0FB22ECF0A3EDF0AE
:10056000A3EEF0A3EFF022E0FBA3E0FAA3E0F92270
:10057000EBF0A3EAF0A3E9F022E493FB740193FA11
:10058000740293F922D083D082F8E493701274013C
:1005900093700DA3A393F8740193F5828883E47399
:1005A0007402936860EFA3A3A380DFE5162582F5AC
:1005B00082E5153583F583B515048582162210AFC3
:1005C00006858216F51522858216F515D2AF22EC26
:1005D0008EF0A4CCC5F0CCCDF8EFA4CEC5F02DFDA7
:1005E000E43CFCE8A42EC8C5F03DFDE43CFCEFA4CF
:1005F000FFE5F028FEE43DFDE43CFC22E709F608B7
:10060000DFFA8046E709F208DFFA803E88828C83B1
:10061000E709F0A3DFFA8032E309F608DFFA806E1B
:10062000E309F208DFFA806688828C83E309F0A38D
:10063000DFFA805A89828A83E0A3F608DFFA804EC7
:1006400089828A83E0A3F208DFFA804280D280FAAE
:1006500080C680D4805580F28029801080A680EAF0
:10066000809A80A880DA80E280CA802988848C857C
:1006700089828A83E493A30586F0A30586DFF5DEED
:10068000F3800B89828A83E493A3F608DFF9ECFAFE
:10069000A9F0EDFB2288848C8589828A83E0A305FA
:1006A00086F0A30586DFF6DEF480E389828A83E4A0
:1006B00093A3F208DFF980D688F0EF60010E4E6058
:1006C000CD88F0ED2402B4040050C3F582EB24027F
:1006D000B4040050B9232345822390064C73BB0118
:1006E0000CE58229F582E5833AF583E0225006E99C
:1006F0002582F8E622BBFE06E92582F8E222E582A1
:1007000029F582E5833AF583E49322F8E0FBA3A37D
:10071000E0F925F0F0E582158270021583E0FA38E1
:10072000F022E50824A7F582E43400F583E005080B
:10073000229000A43007039000A7E475F00112078F
:100740000B0203A52000E97F2ED2008018EF540F82
:100750002490D43440D4FF30040BEF24BFB41A00EB
:1007600050032461FFE50960021509050CE50C70D2
:1007700002050B30070E9000A4E475F00112070B80
:10078000EF0203BE021A647403D2078003E4C207B7
:10079000F5089000A4120570E4F509F50BF50CE5D9
:1007A0000960077F2012076580F5750AFFC201C244
:1007B00000C202C203C205C206C208120731FF709E
:1007C0000D3007057F00120776AF0CAE0B22B42563
:1007D0005FC2D5C204120731FF24D0B40A00501AF8
:1007E00075F00A780930D50508B6FF0106C6A426BB
:1007F000F620D5047002D20380D924CFB41A00EFBA
:100800005004C2E5D204020977D20180C6D200802A
:10081000C0D20280BCD2D580BAD20580B47F20126B
:1008200007652002077401B5090040F1120722FF95
:1008300012076502079FD208D2068095120722FB95
:10084000120722FA120722F94A4B700679487A0AEF
:100850007BFF20022EE509602A7E008E82758300D0
:100860001206DE60060EEE650A70F0C2D5EBC0E03F
:10087000EAC0E0E9C0E0EE1209BED0E0F9D0E0FA4B
:10088000D0E0FB1203A5FF60AAEBC0E0EAC0E0E9FC
:10089000C0E0120765D0E02401F9D0E03400FAD0BE
:1008A000E0FBE50A0460DCD50AD980877BFF7A0982
:1008B00079BAD202809C791080027908C206C208F7
:1008C0008008D2D5790A8004790AC2D5E50A047075
:1008D00002F50AE4FAFDFEFF120722FC7B08200164
:1008E00013120722FD7B1030000A120722FE1207A6
:1008F00022FF7B20EC3382D592D55013C3E4300025
:10090000069FFFE49EFEE42001039DFDE49CFCE4C1
:10091000CBF8C201EC700CCFCECDCCE824F8F87047
:10092000F38017C3EF33FFEE33FEED33FDEC33FC02
:10093000EB33FB994002FB0FD8E9EB300105F8D00F
:10094000E0C448B201C0E00AEC4D4E4F78207B0075
:1009500070C2EAB50A0040BCC0E01209C0D0F0D0B5
:10096000E0200104C4C0E0C4B201C0F012074ED0C0
:10097000F0D5F0EB02079F120585083C5308B658E6
:10098000080D4C08094208BA4F08C24408C2490879
:10099000224308C85508AC4608AC4508AC470A686D
:1009A0005008112D08152E08382B08192308362059
:1009B0000A512A07D148000008303F3F3F00790A1A
:1009C000A2D5200314300509B910020404B90801A6
:1009D00004A2D52006025001042002689202B50943
:1009E000005034C0E07F203003197F30A20272062D
:1009F0007205500F120A17C202C206C205C2087F52
:100A000030800F300503E9C0E0120765300503D0E0
:100A1000E0F9D0E0B509CC3005177F30B9100C12E1
:100A200007657F583004077F788003B908031207F1
:100A3000653002057F2D0207657F202008F87F2B97
:100A40002006F322920280CF286E756C6C2900D2AA
:100A5000011207223001F8C201780930D50108F6E9
:100A60000207D12D504349581207222403B4050030
:100A70004001E4900A6393120756743A120756D263
:100A8000037509040208B67B007A4679E8121CCC8B
:100A9000EF4405FD7B007A4679E8121CD8751400F6
:100AA000E514C3940A503AAF14EF75F005A424E797
:100AB000F582E4341CF583AF82AE838E088F09AED5
:100AC00008AF098F828E83120579AE08AF098F8235
:100AD0008E83740393FC740493FD121B54051480DD
:100AE000BF751400E514C394035078AF14EF75F08C
:100AF00008A42419F582E4341DF583AF82AE838EF9
:100B00000A8F0BAE0AAF0B8F828E831205798B0C86
:100B10008A0D890EAE0AAF0B8F828E83A3A3A31218
:100B200005798B0F8A108911AE0AAF0B8F828E83E5
:100B3000740693F512740793F513AB0FAA10A9115D
:100B4000C003C002C001AB0CAA0DA90E9000051293
:100B50000570D001D002D003AF13AE121219D9051F
:100B60001480817B087A007900121A0D7B017A507B
:100B70007903121CCCEF4402FD7B017A50790312F9
:100B80001CD87B017A507913121CCCEF4402FD7BF8
:100B9000017A507913121CD89043A0E0FFEF444033
:100BA000FF9043A0EFF09043C2E0FFEF4410FF90AE
:100BB00043C2EFF07B087A0D791CC003C002C0016C
:100BC0007B007A517900900005120570D001D002A7
:100BD000D0037F0A7E001219D97B087A0D7928C0CC
:100BE00003C002C0017B007A5179C0900005120554
:100BF00070D001D002D0037F0A7E001219D97B0881
:100C00007A0D7934C003C002C0017B007A51792289
:100C1000900005120570D001D002D0037F087E003D
:100C20001219D99044F47401F0904322E0FFEF448C
:100C300008FF904322EFF09046ECE0FFEFC39405ED
:100C40005006904689743AF090480074F1F0120D05
:100C5000D890480074B1F01218B17B007A4379A0A3
:100C6000C003C002C0017B007A4379B09000051236
:100C70000570D001D002D0037F0E7E001219D990EA
:100C800043B0E0FFEF54FDFFEFF022900092EFF051
:100C9000900093120570121BDF7BFF7A0F79ED1223
:100CA00017057D007F1E121250900097EFF0900004
:100CB00097E0FFEF604C7B017A00799AC003C00295
:100CC000C0017BFF7A0F79FE9000A712057090009B
:100CD00097E0FF9000AAEFF0D001D002D0031207F6
:100CE00087900098EEF0A3EFF07B017A00799A905C
:100CF0000098E0FEA3E0FFAD071217B6900097E062
:100D0000FF227BFF7A0F79ED1217057F0012156223
:100D1000900093120567EF1203BE900092E0FF125D
:100D200015D7900097EFF0900097E0FFEF600690E6
:100D30000097E0FF227D017F1E1213A7900097EF1E
:100D4000F0900097E0FFEF6006900097E0FF2290A0
:100D50000098E4F0A3E4F0900096E0FF7E0090009D
:100D600098E0FCA3E0FDC3ED9FEE6480F8EC6480A6
:100D700098504C900096E0FFEF14FF7E0090009892
:100D8000E0FCA3E0FDC3ED9FEE6480F8EC64809886
:100D900050047F0180027F001215629000931205BB
:100DA00067900098E0FCA3E0FDE92DF9EA3CFAEF3A
:100DB0001203BE900098E475F0011203D0809812DF
:100DC00017FC900097EFF0900097E0FFEF6006901F
:100DD0000097E0FF227F00227B007A4079807D032C
:100DE0007C00121CB19040827418F07B007A40792C
:100DF000847D057C00121CB19040867419F07B0044
:100E00007A4079887D337C00121CB190408A741836
:100E1000F07B007A40798C7D337C00121CB19040CD
:100E20008E7418F09043007402F09040007408F043
:100E30009042007403F07B0C7A017908121CCC906C
:100E400046A1EFF07B007A4279227D087C00121CDB
:100E5000B17B007A4279207D517C12121CB1900046
:100E600004E4F07F197E007D007C009000001205F4
:100E70005B900000120543D3EF9400EE9400404EC7
:100E8000900004E0FFEF64036044904225E0FFEF30
:100E90005401FF7E00900004E0FEEE25E0FEEE4FE0
:100EA000FFEF5403FF900004EFF07FE07E017D0030
:100EB0007C001219009000001205437BFF7AFF7935
:100EC000FF78FF1203E690000012055B80A39000FC
:100ED00000120543EF4E70057F03121C707B007AF1
:100EE0004079047D007C01121CB19040047407F02D
:100EF000904006E4F09040087448F0904004E4F01C
:100F00009040017402F09043A2E0FFEF440FFF9085
:100F100043A2EFF022204D61696E200A00583A206A
:100F20002564200A593A202564200A5A3A2025646B
:100F3000200A00496E697469616C200A0057656C6B
:100F4000636F6D6520746F20746865204465736BF2
:100F5000746F702054657374657220436F6E666998
:100F60006775726174696F6E2026205465737465AD
:100F700072696E6720546F6F6C200A004D656E7544
:100F80003A0A00313A2054657374204163636C65FA
:100F9000726D65746572200A00323A20546573746C
:100FA000204D61676E65746D65746572200A00334B
:100FB0003A2052656164204163636C65726D6574AB
:100FC0006572200A00343A2052656164204D6167E1
:100FD0006E65746D657265200A00353A20436F6E48
:100FE00066696775726174696F6E200A006D616B66
:100FF0006520697420686572653F20200A00583AB0
:101000002025640075930078007583467582E8E0BA
:101010004401F0009046ECE0F99046FAE0FAB9039A
:10102000225420B40012B8001AEA901FFFF0740195
:10103000901FFEF09046F6F0901FFEE06005901FB6
:10104000FFE0FA90480074C0F075812190000078AC
:10105000007920E4F0A3D8FCD9FAEA900119F00253
:10106000001175151F7516FD120A870210A90210CE
:10107000EEE493A3F8E493A34003F68001F208DFC3
:10108000F48029E493A3F85407240CC8C333C45450
:101090000F4420C8834004F456800146F6DFE48004
:1010A0000B01020408102040809019A5E47E0193F2
:1010B00060BCA3FF543F30E509541FFEE493A360D6
:1010C000010ECF54C025E060A840B8E493A3FAE431
:1010D00093A3F8E493A3C8C582C8CAC583CAF0A382
:1010E000C8C582C8CAC583CADFE9DEE780BE121A56
:1010F0008BD2AF9044F474FDF090007DE4F0A374C3
:101100000AF090007FE4F0A3740BF0900081E4F00B
:10111000A3740CF07BFF7A0F79151217057F0A7EF6
:10112000007D007C001216407B017A00797D12144C
:10113000467B017A007902C003C002C0017BFF7ABE
:101140000F791D9000A712057090007DE0FEA3E0CE
:10115000FF9000AAEEF0A3EFF090007FE0FEA3E086
:10116000FF9000ACEEF0A3EFF0900081E0FEA3E072
:10117000FF9000AEEEF0A3EFF0D001D002D003124A
:101180000787900000EEF0A3EFF07B017A00790270
:10119000900000E0FEA3E0FFAD071217B602111D9C
:1011A0002290008CEFF090008D120570121BDF7DF5
:1011B000007F1E121250900093EFF0900093E0FF1A
:1011C000EF6006900093E0FF2290008CE0FF121584
:1011D000D7900093EFF0900093E0FFEF600690004F
:1011E00093E0FF22900091E4F0A3E4F0900090E0FF
:1011F000FF7E00900091E0FCA3E0FDC3ED9FEE6454
:1012000080F8EC648098502C90008D1205671203D2
:10121000A5FF1215D7900093EFF0900093E0FFEF39
:101220006006900093E0FF22900091E475F00112B7
:1012300003D080B81217FC900093EFF0900093E079
:10124000FFEF6006900093E0FF22900093E0FF2202
:101250009000A4EFF09000A5EDF09000A67402F0CD
:10126000900135E0FFEF641060030212F8906464AF
:10127000E0FFEF20E47C9044C87401F09000A4E00B
:10128000FFEF25E0FF9000A4EFF09000A5E0FFEF56
:1012900060169000A4E0FFEF4401FF9000A4EFF07F
:1012A0009001357449F080069001357445F0900046
:1012B000A4E0FF906400EFF090647B7482F090648F
:1012C00050E4F0906464E0FFEF30E0F7906464E095
:1012D000FFEF540AFF7E00EF640A4E700E90013556
:1012E0007410F09000A67403F0800D9000A6E4F056
:1012F00080069000A67401F09000A6E0FF227F0017
:10130000121A3A7F017E007D007C001216407F2079
:101310001218E77F371218E77F01121A3A7F647EAE
:10132000007D007C001216407F00121A3A7F017E79
:10133000007D007C001216407F211218E77F00120A
:1013400018E77F01121A3A7F647E007D007C00124C
:1013500016407F00121A3A7F017E007D007C001249
:1013600016407F221218E77F001218E77F01121A39
:101370003A7F647E007D007C001216407F00121AC6
:101380003A7F017E007D007C001216407F231218F8
:10139000E77F301218E77F01121A3A7F647E007DE2
:1013A000007C00121640229000A4EFF09000A5ED02
:1013B000F09000A67402F0906464E0FFEF20E20376
:1013C0000214409000A4E0FFEF25E0FF9000A4EF9E
:1013D000F09000A5E0FFEF60169000A4E0FFEF445E
:1013E00001FF9000A4EFF09001357449F080069061
:1013F00001357445F09000A4E0FF906400EFF09098
:10140000647B7432F0906450E4F0906464E0FFEF29
:1014100020E0F7906464E0FFEF30E0F7906464E070
:10142000FFEF540AFF7E00EF640A4E700E90013504
:101430007410F09000A67403F080059000A6E4F00C
:101440009000A6E0FF229000891205707B017A00CF
:10145000798C9000967406F07F03120C8B90008CB0
:10146000E0FF900089120567EF1203BE90008DE047
:10147000FF900089120567E92401F9EA3400FAEFC8
:101480001203BE90008EE0FF900089120567E924E8
:1014900002F9EA3400FAEF1203BE90008FE0FF90E9
:1014A0000089120567E92403F9EA3400FAEF120310
:1014B000BE900090E0FF900089120567E92404F9CE
:1014C000EA3400FAEF1203BE900091E0FF90008929
:1014D000120567E92405F9EA3400FAEF1203BE2287
:1014E00090008AEFF090008BECF0A3EDF090008A72
:1014F000E0FFEFD3941F5003D38001C340057F006A
:10150000121BCA90008AE0FFEF541FFF7E00EF25F8
:10151000E0FFEE33FEEF2400FFEE3444FEAA06A9FE
:10152000077B01121CA490008DEEF0A3EFF0900059
:101530008AE0FF7E02EF8EF0A4FFAEF0EF2400FF02
:10154000EE3444FEAA06A9077B0190008BE0FEA3BF
:10155000E0FFAD07AC06121CB390008DE0FEA3E0E7
:10156000FF229000A4EFF09000A5E4F0906464E006
:10157000FFEF30E25C900135E0FFEFB4491A9001D3
:1015800035744AF090647B7402F0906450E4F090FB
:101590006464E0FFEF20E0F7906464E0FFEF30E088
:1015A000F7906400E0FF9000A5EFF09000A4E0FF4A
:1015B000EF601890647B7402F0906450E4F09064E3
:1015C00064E0FFEF30E00A80F5800690013574603A
:1015D000F09000A5E0FF229000A4EFF09000A57429
:1015E00002F0906464E0FFEF30E24F9000A4E0FF6F
:1015F000906400EFF090647B7406F0906450E4F027
:10160000906464E0FFEF20E0F79001357446F090BD
:101610006464E0FFEF30E0F7906464E0FFEF20E106
:101620000D9001357460F09000A5E4F0800C9001FD
:10163000357460F09000A57403F09000A5E0FF22DF
:1016400090FFFC1205AB12055B851583851682128F
:101650000543D3EF9400EE9480402F90011A1205B9
:1016600043121900851583851682C083C082120536
:1016700043EF2400FFEE3480FEED34FFFDEC34FF39
:10168000FCD082D08312055B80BF9001101205430D
:1016900085158385168212054F1203F312190090E7
:1016A00000041205AB2290008AEFF090008BEDF061
:1016B00090008BE0FFEFD394075003D38001C34029
:1016C000057F00121BCA90008AE0FFEFD3941F50E1
:1016D00003D38001C340057F00121BCA90008BE03A
:1016E000FFEF5407FF7E00EF75F020A4FFAEF090EF
:1016F000008AE0FEEE541FFE74802EF582E434442E
:10170000F583EFF0229000A41205709000A7E4F09A
:10171000A3E4F090013AE0FFEF60429000A41205CC
:10172000679000A7E0FEA3E0FFE92FF9EA3EFA1276
:1017300003A5FFEF60279000A41205679000A7E0C3
:10174000FEA3E0FFE92FF9EA3EFA1203A5FF121B00
:101750003B9000A7E475F0011203D080BE22906494
:101760007BE4F09064847401F0121C33900089EFE4
:10177000F0906494E0FFEF4410FFEFF0900089E0F8
:10178000FF121B6D906421740FF09064317408F0A7
:101790009044C87401F07D077F001216A67C007D7E
:1017A0001A7F001214E09001357410F0121C4812D8
:1017B0001C5C121BDF229000A41205709000A7EDA4
:1017C000F09000A8E4F090013AE0FFEF602D900067
:1017D000A41205679000A8E0FFE92FF9E43AFA1295
:1017E00003A5FF121B3B9000A8E004F09000A7E0C7
:1017F000FF9000A8E0FEEEC39F40D3229000A474A7
:1018000002F0906464E0FFEF30E22E90647B74524B
:10181000F0906450E4F0906464E0FFEF20E0F79013
:1018200001357410F0906464E0FFEF5421FF7E00F6
:10183000EF4E60F19000A4E4F09000A4E0FF2212CB
:101840001C33900089EFF0906495E0FFEF4420FF97
:10185000EFF0906496E0FFEF4410FFEFF090659793
:10186000E0FFEF4410FFEFF0900089E0FF121B6DE6
:10187000121B85121CE5121CE622906567E0FFEF43
:1018800030E507906456E0FF80F0121C3390008929
:10189000EFF0906496E0FFEF4401FFEFF090649664
:1018A000E0FFEF54FEFFEFF0900089E0FF121B6DA8
:1018B000227B0C7A0179CF121CCC900000EFF090C3
:1018C0000000E0FFEF5407FF90586EEFF09000002B
:1018D000E0FFEFC4540FFFEF540FFF90586FEFF08D
:1018E0009058767444F022900089EFF0906466E09E
:1018F000FFEF30E2F7900089E0FF906446EFF022BE
:10190000EC4D4E700D78FCEF24E950032840FD2289
:1019100000007BF178DA0000EF28FF78FFEE38FE58
:10192000ED38FDEC38FC50E7EF2BFFEE38FEED38DC
:10193000FDEC38FC40F22205020304121C33900037
:1019400089EFF090649DE0FFEF4420FFEFF090649A
:101950009CE0FFEF4410FFEFF0906598E0FFEF444C
:1019600010FFEFF0121B9C900089E0FF121B6D220C
:10197000121C33900089EFF0906599E0FFEF44204E
:10198000FFEFF0906498E0FFEF4410FFEFF09065F8
:1019900096E0FFEF4410FFEFF0121BB3900089E0D8
:1019A000FF121B6D22440115016E36004401100028
:1019B000005DC04101141844011A2EE000004101ED
:1019C0003600410134004101380041013A00430131
:1019D0002A00000041013B0000758600EF4E6027A1
:1019E000EF60010E759300900005E0F595A3E0F51A
:1019F00085A3E0F5848B938A838982E0A30586F032
:101A0000A31586DFF6DEF4E4F593F59522ACEAAD96
:101A1000A08B938A838982E0F96017A3E0F5EAA39B
:101A2000E0F5A0A3E060F4FAA3E0F8A3E0F2DAF8AE
:101A3000D9E98DA08CEAE4F59322900089EFF0902B
:101A40005100E0FFEF54FEFF90008AEFF090008914
:101A5000E0FFEF5401FF90008AE0FEEF4EFF90514F
:101A600000EFF022EFB40A07740D121A6F740A30F7
:101A70009811A899B8130CC2983098FDA899C298EB
:101A8000B811F63099FDC299F599227F01121A3AE0
:101A9000121BF4121B06121C09121C1E7BFF7A0F6C
:101AA0007933121705121AE91212FE229065897411
:101AB00072F09064887420F09064257407F090644C
:101AC000357448F09065867402F02290648D7472CB
:101AD000F090648C7420F090642B7407F090643B59
:101AE0007448F0906588E4F022900089741EF090AC
:101AF000008AE4F07B017A00798A9000907401F00A
:101B00007F021211A122900136E0FFEF7009121737
:101B10005E9001367401F0121CC09044C07401F054
:101B200022906485740FF012187A121C82121C9293
:101B3000906486E4F0906587E4F0229000A9EFF0CD
:101B4000906566E0FFEF20E2F79000A9E0FF906566
:101B500046EFF022EC4D6011ED60010C8B938A830F
:101B60008982E4F0A3DDFCDCFA75930022EF5401D6
:101B70006004D2AF8002C2AFEF5402FF9044F4E0A1
:101B800054FD4FF0229043A2E0FFEF4402FFEFF03C
:101B90009043B2E0FFEF4402FFEFF0229043A2E057
:101BA000FFEF4404FFEFF09043B2E0FFEF4404FF87
:101BB000EFF0229043A2E0FFEF4408FFEFF09043E4
:101BC000B2E0FFEF4408FFEFF02290FFFF1205ABF9
:101BD000EFF09046EA7401F09000011205AB2290FC
:101BE0000123E0FF9000A4EFF0900123E4F09000C7
:101BF000A4E0FF22900134E0FFEF7009121B219056
:101C000001347401F012183F22900138E0FFEF70A8
:101C100009121ACB9001387401F012193B2290017D
:101C20003AE0FFEF7009121AAC90013A7401F01219
:101C30001970229044F4E0F84402F0E85402FF10D6
:101C4000AF012274014FFF2290011EE4F0900123A6
:101C5000E0FFEF54FEFF900123EFF02290011FE41C
:101C6000F0900123E0FFEF54FDFF900123EFF022FD
:101C7000900005EFF0900005E0FF900005EFF08088
:101C8000FE22906466E0FF900089EFF0900089E00A
:101C9000FF22906567E0FF900089EFF0900089E0F7
:101CA000FF228B938A838982E0FFA3E0FE75930075
:101CB000228B938A838982EDF0A3ECF07593002246
:101CC00090647BE0FFEF4402FFEFF0228B938A8366
:101CD0008982E0759300FF228B938A838982EDF0DD
:101CE0007593002222222200511000100051300072
:101CF000400051F0001001000006000106800400C1
:101D0000010B00050001140008000140000A000159
:101D10004C0002000150000020005260080C14002A
:101D200006010600080C1C0080010A80080C9C00BB
:011D30008032
:00000001FF
